{
  "_format": "hh-sol-artifact-1",
  "contractName": "MyNFT",
  "sourceName": "contracts/NFT.sol",
  "abi": [
    {
      "inputs": [
        {
          "internalType": "string",
          "name": "name",
          "type": "string"
        },
        {
          "internalType": "string",
          "name": "symbol",
          "type": "string"
        },
        {
          "internalType": "uint256",
          "name": "_companyFee",
          "type": "uint256"
        }
      ],
      "stateMutability": "nonpayable",
      "type": "constructor"
    },
    {
      "anonymous": false,
      "inputs": [
        {
          "indexed": true,
          "internalType": "address",
          "name": "owner",
          "type": "address"
        },
        {
          "indexed": true,
          "internalType": "address",
          "name": "approved",
          "type": "address"
        },
        {
          "indexed": true,
          "internalType": "uint256",
          "name": "tokenId",
          "type": "uint256"
        }
      ],
      "name": "Approval",
      "type": "event"
    },
    {
      "anonymous": false,
      "inputs": [
        {
          "indexed": true,
          "internalType": "address",
          "name": "owner",
          "type": "address"
        },
        {
          "indexed": true,
          "internalType": "address",
          "name": "operator",
          "type": "address"
        },
        {
          "indexed": false,
          "internalType": "bool",
          "name": "approved",
          "type": "bool"
        }
      ],
      "name": "ApprovalForAll",
      "type": "event"
    },
    {
      "anonymous": false,
      "inputs": [
        {
          "indexed": true,
          "internalType": "address",
          "name": "previousOwner",
          "type": "address"
        },
        {
          "indexed": true,
          "internalType": "address",
          "name": "newOwner",
          "type": "address"
        }
      ],
      "name": "OwnershipTransferred",
      "type": "event"
    },
    {
      "anonymous": false,
      "inputs": [
        {
          "indexed": true,
          "internalType": "address",
          "name": "from",
          "type": "address"
        },
        {
          "indexed": true,
          "internalType": "address",
          "name": "to",
          "type": "address"
        },
        {
          "indexed": true,
          "internalType": "uint256",
          "name": "tokenId",
          "type": "uint256"
        }
      ],
      "name": "Transfer",
      "type": "event"
    },
    {
      "inputs": [
        {
          "internalType": "address",
          "name": "to",
          "type": "address"
        },
        {
          "internalType": "uint256",
          "name": "tokenId",
          "type": "uint256"
        }
      ],
      "name": "approve",
      "outputs": [],
      "stateMutability": "nonpayable",
      "type": "function"
    },
    {
      "inputs": [
        {
          "internalType": "address",
          "name": "owner",
          "type": "address"
        }
      ],
      "name": "balanceOf",
      "outputs": [
        {
          "internalType": "uint256",
          "name": "",
          "type": "uint256"
        }
      ],
      "stateMutability": "view",
      "type": "function"
    },
    {
      "inputs": [],
      "name": "companyFee",
      "outputs": [
        {
          "internalType": "uint256",
          "name": "",
          "type": "uint256"
        }
      ],
      "stateMutability": "view",
      "type": "function"
    },
    {
      "inputs": [
        {
          "internalType": "uint256",
          "name": "tokenId",
          "type": "uint256"
        }
      ],
      "name": "getApproved",
      "outputs": [
        {
          "internalType": "address",
          "name": "",
          "type": "address"
        }
      ],
      "stateMutability": "view",
      "type": "function"
    },
    {
      "inputs": [
        {
          "internalType": "uint256",
          "name": "tokenId",
          "type": "uint256"
        }
      ],
      "name": "getSalePrice",
      "outputs": [
        {
          "internalType": "uint256",
          "name": "",
          "type": "uint256"
        }
      ],
      "stateMutability": "view",
      "type": "function"
    },
    {
      "inputs": [
        {
          "internalType": "address",
          "name": "owner",
          "type": "address"
        },
        {
          "internalType": "address",
          "name": "operator",
          "type": "address"
        }
      ],
      "name": "isApprovedForAll",
      "outputs": [
        {
          "internalType": "bool",
          "name": "",
          "type": "bool"
        }
      ],
      "stateMutability": "view",
      "type": "function"
    },
    {
      "inputs": [
        {
          "internalType": "uint256",
          "name": "price",
          "type": "uint256"
        }
      ],
      "name": "mint",
      "outputs": [],
      "stateMutability": "payable",
      "type": "function"
    },
    {
      "inputs": [],
      "name": "name",
      "outputs": [
        {
          "internalType": "string",
          "name": "",
          "type": "string"
        }
      ],
      "stateMutability": "view",
      "type": "function"
    },
    {
      "inputs": [],
      "name": "owner",
      "outputs": [
        {
          "internalType": "address",
          "name": "",
          "type": "address"
        }
      ],
      "stateMutability": "view",
      "type": "function"
    },
    {
      "inputs": [
        {
          "internalType": "uint256",
          "name": "tokenId",
          "type": "uint256"
        }
      ],
      "name": "ownerOf",
      "outputs": [
        {
          "internalType": "address",
          "name": "",
          "type": "address"
        }
      ],
      "stateMutability": "view",
      "type": "function"
    },
    {
      "inputs": [
        {
          "internalType": "uint256",
          "name": "tokenId",
          "type": "uint256"
        }
      ],
      "name": "purchase",
      "outputs": [],
      "stateMutability": "payable",
      "type": "function"
    },
    {
      "inputs": [],
      "name": "renounceOwnership",
      "outputs": [],
      "stateMutability": "nonpayable",
      "type": "function"
    },
    {
      "inputs": [
        {
          "internalType": "address",
          "name": "from",
          "type": "address"
        },
        {
          "internalType": "address",
          "name": "to",
          "type": "address"
        },
        {
          "internalType": "uint256",
          "name": "tokenId",
          "type": "uint256"
        }
      ],
      "name": "safeTransferFrom",
      "outputs": [],
      "stateMutability": "nonpayable",
      "type": "function"
    },
    {
      "inputs": [
        {
          "internalType": "address",
          "name": "from",
          "type": "address"
        },
        {
          "internalType": "address",
          "name": "to",
          "type": "address"
        },
        {
          "internalType": "uint256",
          "name": "tokenId",
          "type": "uint256"
        },
        {
          "internalType": "bytes",
          "name": "data",
          "type": "bytes"
        }
      ],
      "name": "safeTransferFrom",
      "outputs": [],
      "stateMutability": "nonpayable",
      "type": "function"
    },
    {
      "inputs": [
        {
          "internalType": "uint256",
          "name": "tokenId",
          "type": "uint256"
        },
        {
          "internalType": "uint256",
          "name": "_salePrice",
          "type": "uint256"
        }
      ],
      "name": "sell",
      "outputs": [],
      "stateMutability": "nonpayable",
      "type": "function"
    },
    {
      "inputs": [
        {
          "internalType": "address",
          "name": "operator",
          "type": "address"
        },
        {
          "internalType": "bool",
          "name": "approved",
          "type": "bool"
        }
      ],
      "name": "setApprovalForAll",
      "outputs": [],
      "stateMutability": "nonpayable",
      "type": "function"
    },
    {
      "inputs": [
        {
          "internalType": "uint256",
          "name": "_companyFee",
          "type": "uint256"
        }
      ],
      "name": "setCompanyFee",
      "outputs": [],
      "stateMutability": "nonpayable",
      "type": "function"
    },
    {
      "inputs": [
        {
          "internalType": "uint256",
          "name": "tokenId",
          "type": "uint256"
        },
        {
          "internalType": "uint256",
          "name": "_price",
          "type": "uint256"
        }
      ],
      "name": "setSalePrice",
      "outputs": [],
      "stateMutability": "nonpayable",
      "type": "function"
    },
    {
      "inputs": [
        {
          "internalType": "bytes4",
          "name": "interfaceId",
          "type": "bytes4"
        }
      ],
      "name": "supportsInterface",
      "outputs": [
        {
          "internalType": "bool",
          "name": "",
          "type": "bool"
        }
      ],
      "stateMutability": "view",
      "type": "function"
    },
    {
      "inputs": [],
      "name": "symbol",
      "outputs": [
        {
          "internalType": "string",
          "name": "",
          "type": "string"
        }
      ],
      "stateMutability": "view",
      "type": "function"
    },
    {
      "inputs": [
        {
          "internalType": "uint256",
          "name": "tokenId",
          "type": "uint256"
        }
      ],
      "name": "tokenURI",
      "outputs": [
        {
          "internalType": "string",
          "name": "",
          "type": "string"
        }
      ],
      "stateMutability": "view",
      "type": "function"
    },
    {
      "inputs": [],
      "name": "totalSupply",
      "outputs": [
        {
          "internalType": "uint256",
          "name": "",
          "type": "uint256"
        }
      ],
      "stateMutability": "view",
      "type": "function"
    },
    {
      "inputs": [
        {
          "internalType": "address",
          "name": "from",
          "type": "address"
        },
        {
          "internalType": "address",
          "name": "to",
          "type": "address"
        },
        {
          "internalType": "uint256",
          "name": "tokenId",
          "type": "uint256"
        }
      ],
      "name": "transferFrom",
      "outputs": [],
      "stateMutability": "nonpayable",
      "type": "function"
    },
    {
      "inputs": [
        {
          "internalType": "address",
          "name": "newOwner",
          "type": "address"
        }
      ],
      "name": "transferOwnership",
      "outputs": [],
      "stateMutability": "nonpayable",
      "type": "function"
    }
  ],
  "bytecode": "0x608060405260006008553480156200001657600080fd5b50604051620039db380380620039db83398181016040528101906200003c9190620002a9565b828281600090805190602001906200005692919062000170565b5080600190805190602001906200006f92919062000170565b5050506200009262000086620000a260201b60201c565b620000aa60201b60201c565b80600781905550505050620004c5565b600033905090565b6000600660009054906101000a900473ffffffffffffffffffffffffffffffffffffffff16905081600660006101000a81548173ffffffffffffffffffffffffffffffffffffffff021916908373ffffffffffffffffffffffffffffffffffffffff1602179055508173ffffffffffffffffffffffffffffffffffffffff168173ffffffffffffffffffffffffffffffffffffffff167f8be0079c531659141344cd1fd0a4f28419497f9722a3daafe3b4186f6b6457e060405160405180910390a35050565b8280546200017e90620003d0565b90600052602060002090601f016020900481019282620001a25760008555620001ee565b82601f10620001bd57805160ff1916838001178555620001ee565b82800160010185558215620001ee579182015b82811115620001ed578251825591602001919060010190620001d0565b5b509050620001fd919062000201565b5090565b5b808211156200021c57600081600090555060010162000202565b5090565b60006200023762000231846200035a565b62000331565b9050828152602081018484840111156200025057600080fd5b6200025d8482856200039a565b509392505050565b600082601f8301126200027757600080fd5b81516200028984826020860162000220565b91505092915050565b600081519050620002a381620004ab565b92915050565b600080600060608486031215620002bf57600080fd5b600084015167ffffffffffffffff811115620002da57600080fd5b620002e88682870162000265565b935050602084015167ffffffffffffffff8111156200030657600080fd5b620003148682870162000265565b9250506040620003278682870162000292565b9150509250925092565b60006200033d62000350565b90506200034b828262000406565b919050565b6000604051905090565b600067ffffffffffffffff8211156200037857620003776200046b565b5b62000383826200049a565b9050602081019050919050565b6000819050919050565b60005b83811015620003ba5780820151818401526020810190506200039d565b83811115620003ca576000848401525b50505050565b60006002820490506001821680620003e957607f821691505b602082108114156200040057620003ff6200043c565b5b50919050565b62000411826200049a565b810181811067ffffffffffffffff821117156200043357620004326200046b565b5b80604052505050565b7f4e487b7100000000000000000000000000000000000000000000000000000000600052602260045260246000fd5b7f4e487b7100000000000000000000000000000000000000000000000000000000600052604160045260246000fd5b6000601f19601f8301169050919050565b620004b68162000390565b8114620004c257600080fd5b50565b61350680620004d56000396000f3fe60806040526004361061014b5760003560e01c806395d89b41116100b6578063d79875eb1161006f578063d79875eb14610481578063e985e9c5146104aa578063efef39a1146104e7578063f2fde38b14610503578063f587477a1461052c578063f8eb5fc5146105555761014b565b806395d89b4114610380578063a0712d68146103ab578063a22cb465146103c7578063a27a8859146103f0578063b88d4fde1461041b578063c87b56dd146104445761014b565b806323b872dd1161010857806323b872dd1461027257806342842e0e1461029b5780636352211e146102c457806370a0823114610301578063715018a61461033e5780638da5cb5b146103555761014b565b806301ffc9a714610150578063053992c51461018d57806306fdde03146101b6578063081812fc146101e1578063095ea7b31461021e57806318160ddd14610247575b600080fd5b34801561015c57600080fd5b506101776004803603810190610172919061242f565b610592565b6040516101849190612935565b60405180910390f35b34801561019957600080fd5b506101b460048036038101906101af91906124aa565b610674565b005b3480156101c257600080fd5b506101cb610698565b6040516101d89190612950565b60405180910390f35b3480156101ed57600080fd5b5061020860048036038101906102039190612481565b61072a565b60405161021591906128ce565b60405180910390f35b34801561022a57600080fd5b50610245600480360381019061024091906123f3565b610770565b005b34801561025357600080fd5b5061025c610888565b6040516102699190612bf2565b60405180910390f35b34801561027e57600080fd5b50610299600480360381019061029491906122ed565b61088e565b005b3480156102a757600080fd5b506102c260048036038101906102bd91906122ed565b6108ee565b005b3480156102d057600080fd5b506102eb60048036038101906102e69190612481565b61090e565b6040516102f891906128ce565b60405180910390f35b34801561030d57600080fd5b5061032860048036038101906103239190612288565b610995565b6040516103359190612bf2565b60405180910390f35b34801561034a57600080fd5b50610353610a4d565b005b34801561036157600080fd5b5061036a610a61565b60405161037791906128ce565b60405180910390f35b34801561038c57600080fd5b50610395610a8b565b6040516103a29190612950565b60405180910390f35b6103c560048036038101906103c09190612481565b610b1d565b005b3480156103d357600080fd5b506103ee60048036038101906103e991906123b7565b610beb565b005b3480156103fc57600080fd5b50610405610c01565b6040516104129190612bf2565b60405180910390f35b34801561042757600080fd5b50610442600480360381019061043d919061233c565b610c07565b005b34801561045057600080fd5b5061046b60048036038101906104669190612481565b610c69565b6040516104789190612950565b60405180910390f35b34801561048d57600080fd5b506104a860048036038101906104a391906124aa565b610cd1565b005b3480156104b657600080fd5b506104d160048036038101906104cc91906122b1565b610dcc565b6040516104de9190612935565b60405180910390f35b61050160048036038101906104fc9190612481565b610e60565b005b34801561050f57600080fd5b5061052a60048036038101906105259190612288565b6110a5565b005b34801561053857600080fd5b50610553600480360381019061054e9190612481565b611129565b005b34801561056157600080fd5b5061057c60048036038101906105779190612481565b61113b565b6040516105899190612bf2565b60405180910390f35b60007f80ac58cd000000000000000000000000000000000000000000000000000000007bffffffffffffffffffffffffffffffffffffffffffffffffffffffff1916827bffffffffffffffffffffffffffffffffffffffffffffffffffffffff1916148061065d57507f5b5e139f000000000000000000000000000000000000000000000000000000007bffffffffffffffffffffffffffffffffffffffffffffffffffffffff1916827bffffffffffffffffffffffffffffffffffffffffffffffffffffffff1916145b8061066d575061066c82611158565b5b9050919050565b61067c6111c2565b8060096000848152602001908152602001600020819055505050565b6060600080546106a790612e48565b80601f01602080910402602001604051908101604052809291908181526020018280546106d390612e48565b80156107205780601f106106f557610100808354040283529160200191610720565b820191906000526020600020905b81548152906001019060200180831161070357829003601f168201915b5050505050905090565b600061073582611240565b6004600083815260200190815260200160002060009054906101000a900473ffffffffffffffffffffffffffffffffffffffff169050919050565b600061077b8261090e565b90508073ffffffffffffffffffffffffffffffffffffffff168373ffffffffffffffffffffffffffffffffffffffff1614156107ec576040517f08c379a00000000000000000000000000000000000000000000000000000000081526004016107e390612b92565b60405180910390fd5b8073ffffffffffffffffffffffffffffffffffffffff1661080b61128b565b73ffffffffffffffffffffffffffffffffffffffff16148061083a57506108398161083461128b565b610dcc565b5b610879576040517f08c379a000000000000000000000000000000000000000000000000000000000815260040161087090612bb2565b60405180910390fd5b6108838383611293565b505050565b60085481565b61089f61089961128b565b8261134c565b6108de576040517f08c379a00000000000000000000000000000000000000000000000000000000081526004016108d5906129b2565b60405180910390fd5b6108e98383836113e1565b505050565b61090983838360405180602001604052806000815250610c07565b505050565b60008061091a836116db565b9050600073ffffffffffffffffffffffffffffffffffffffff168173ffffffffffffffffffffffffffffffffffffffff16141561098c576040517f08c379a000000000000000000000000000000000000000000000000000000000815260040161098390612b72565b60405180910390fd5b80915050919050565b60008073ffffffffffffffffffffffffffffffffffffffff168273ffffffffffffffffffffffffffffffffffffffff161415610a06576040517f08c379a00000000000000000000000000000000000000000000000000000000081526004016109fd90612af2565b60405180910390fd5b600360008373ffffffffffffffffffffffffffffffffffffffff1673ffffffffffffffffffffffffffffffffffffffff168152602001908152602001600020549050919050565b610a556111c2565b610a5f6000611718565b565b6000600660009054906101000a900473ffffffffffffffffffffffffffffffffffffffff16905090565b606060018054610a9a90612e48565b80601f0160208091040260200160405190810160405280929190818152602001828054610ac690612e48565b8015610b135780601f10610ae857610100808354040283529160200191610b13565b820191906000526020600020905b815481529060010190602001808311610af657829003601f168201915b5050505050905090565b80341015610b60576040517f08c379a0000000000000000000000000000000000000000000000000000000008152600401610b5790612ad2565b60405180910390fd5b60006001600854610b719190612cb1565b9050610b7d33826117de565b33600a600083815260200190815260200160002060006101000a81548173ffffffffffffffffffffffffffffffffffffffff021916908373ffffffffffffffffffffffffffffffffffffffff16021790555060086000815480929190610be290612eab565b91905055505050565b610bfd610bf661128b565b83836117fc565b5050565b60075481565b610c18610c1261128b565b8361134c565b610c57576040517f08c379a0000000000000000000000000000000000000000000000000000000008152600401610c4e906129b2565b60405180910390fd5b610c6384848484611969565b50505050565b6060610c7482611240565b6000610c7e6119c5565b90506000815111610c9e5760405180602001604052806000815250610cc9565b80610ca8846119dc565b604051602001610cb9929190612895565b6040516020818303038152906040525b915050919050565b610cda82611b00565b610d19576040517f08c379a0000000000000000000000000000000000000000000000000000000008152600401610d1090612a92565b60405180910390fd5b610d23338361134c565b610d62576040517f08c379a0000000000000000000000000000000000000000000000000000000008152600401610d5990612992565b60405180910390fd5b60008111610da5576040517f08c379a0000000000000000000000000000000000000000000000000000000008152600401610d9c90612972565b60405180910390fd5b806009600084815260200190815260200160002081905550610dc83330846113e1565b5050565b6000600560008473ffffffffffffffffffffffffffffffffffffffff1673ffffffffffffffffffffffffffffffffffffffff16815260200190815260200160002060008373ffffffffffffffffffffffffffffffffffffffff1673ffffffffffffffffffffffffffffffffffffffff16815260200190815260200160002060009054906101000a900460ff16905092915050565b610e6981611b00565b610ea8576040517f08c379a0000000000000000000000000000000000000000000000000000000008152600401610e9f90612a92565b60405180910390fd5b60006009600083815260200190815260200160002054905080341015610f03576040517f08c379a0000000000000000000000000000000000000000000000000000000008152600401610efa90612ab2565b60405180910390fd5b6000610f0e8361090e565b905060008190506000610f1f610a61565b905060008273ffffffffffffffffffffffffffffffffffffffff1685604051610f47906128b9565b60006040518083038185875af1925050503d8060008114610f84576040519150601f19603f3d011682016040523d82523d6000602084013e610f89565b606091505b5050905080610fcd576040517f08c379a0000000000000000000000000000000000000000000000000000000008152600401610fc490612b32565b60405180910390fd5b8173ffffffffffffffffffffffffffffffffffffffff16606460075487610ff49190612d38565b610ffe9190612d07565b60405161100a906128b9565b60006040518083038185875af1925050503d8060008114611047576040519150601f19603f3d011682016040523d82523d6000602084013e61104c565b606091505b50508091505080611092576040517f08c379a000000000000000000000000000000000000000000000000000000000815260040161108990612bd2565b60405180910390fd5b61109d8433886113e1565b505050505050565b6110ad6111c2565b600073ffffffffffffffffffffffffffffffffffffffff168173ffffffffffffffffffffffffffffffffffffffff16141561111d576040517f08c379a0000000000000000000000000000000000000000000000000000000008152600401611114906129f2565b60405180910390fd5b61112681611718565b50565b6111316111c2565b8060078190555050565b600060096000838152602001908152602001600020549050919050565b60007f01ffc9a7000000000000000000000000000000000000000000000000000000007bffffffffffffffffffffffffffffffffffffffffffffffffffffffff1916827bffffffffffffffffffffffffffffffffffffffffffffffffffffffff1916149050919050565b6111ca61128b565b73ffffffffffffffffffffffffffffffffffffffff166111e8610a61565b73ffffffffffffffffffffffffffffffffffffffff161461123e576040517f08c379a000000000000000000000000000000000000000000000000000000000815260040161123590612b52565b60405180910390fd5b565b61124981611b00565b611288576040517f08c379a000000000000000000000000000000000000000000000000000000000815260040161127f90612b72565b60405180910390fd5b50565b600033905090565b816004600083815260200190815260200160002060006101000a81548173ffffffffffffffffffffffffffffffffffffffff021916908373ffffffffffffffffffffffffffffffffffffffff160217905550808273ffffffffffffffffffffffffffffffffffffffff166113068361090e565b73ffffffffffffffffffffffffffffffffffffffff167f8c5be1e5ebec7d5bd14f71427d1e84f3dd0314c0f7b2291e5b200ac8c7c3b92560405160405180910390a45050565b6000806113588361090e565b90508073ffffffffffffffffffffffffffffffffffffffff168473ffffffffffffffffffffffffffffffffffffffff16148061139a57506113998185610dcc565b5b806113d857508373ffffffffffffffffffffffffffffffffffffffff166113c08461072a565b73ffffffffffffffffffffffffffffffffffffffff16145b91505092915050565b8273ffffffffffffffffffffffffffffffffffffffff166114018261090e565b73ffffffffffffffffffffffffffffffffffffffff1614611457576040517f08c379a000000000000000000000000000000000000000000000000000000000815260040161144e90612a12565b60405180910390fd5b600073ffffffffffffffffffffffffffffffffffffffff168273ffffffffffffffffffffffffffffffffffffffff1614156114c7576040517f08c379a00000000000000000000000000000000000000000000000000000000081526004016114be90612a52565b60405180910390fd5b6114d48383836001611b41565b8273ffffffffffffffffffffffffffffffffffffffff166114f48261090e565b73ffffffffffffffffffffffffffffffffffffffff161461154a576040517f08c379a000000000000000000000000000000000000000000000000000000000815260040161154190612a12565b60405180910390fd5b6004600082815260200190815260200160002060006101000a81549073ffffffffffffffffffffffffffffffffffffffff02191690556001600360008573ffffffffffffffffffffffffffffffffffffffff1673ffffffffffffffffffffffffffffffffffffffff168152602001908152602001600020600082825403925050819055506001600360008473ffffffffffffffffffffffffffffffffffffffff1673ffffffffffffffffffffffffffffffffffffffff16815260200190815260200160002060008282540192505081905550816002600083815260200190815260200160002060006101000a81548173ffffffffffffffffffffffffffffffffffffffff021916908373ffffffffffffffffffffffffffffffffffffffff160217905550808273ffffffffffffffffffffffffffffffffffffffff168473ffffffffffffffffffffffffffffffffffffffff167fddf252ad1be2c89b69c2b068fc378daa952ba7f163c4a11628f55a4df523b3ef60405160405180910390a46116d68383836001611b47565b505050565b60006002600083815260200190815260200160002060009054906101000a900473ffffffffffffffffffffffffffffffffffffffff169050919050565b6000600660009054906101000a900473ffffffffffffffffffffffffffffffffffffffff16905081600660006101000a81548173ffffffffffffffffffffffffffffffffffffffff021916908373ffffffffffffffffffffffffffffffffffffffff1602179055508173ffffffffffffffffffffffffffffffffffffffff168173ffffffffffffffffffffffffffffffffffffffff167f8be0079c531659141344cd1fd0a4f28419497f9722a3daafe3b4186f6b6457e060405160405180910390a35050565b6117f8828260405180602001604052806000815250611b4d565b5050565b8173ffffffffffffffffffffffffffffffffffffffff168373ffffffffffffffffffffffffffffffffffffffff16141561186b576040517f08c379a000000000000000000000000000000000000000000000000000000000815260040161186290612a72565b60405180910390fd5b80600560008573ffffffffffffffffffffffffffffffffffffffff1673ffffffffffffffffffffffffffffffffffffffff16815260200190815260200160002060008473ffffffffffffffffffffffffffffffffffffffff1673ffffffffffffffffffffffffffffffffffffffff16815260200190815260200160002060006101000a81548160ff0219169083151502179055508173ffffffffffffffffffffffffffffffffffffffff168373ffffffffffffffffffffffffffffffffffffffff167f17307eab39ab6107e8899845ad3d59bd9653f200f220920489ca2b5937696c318360405161195c9190612935565b60405180910390a3505050565b6119748484846113e1565b61198084848484611ba8565b6119bf576040517f08c379a00000000000000000000000000000000000000000000000000000000081526004016119b6906129d2565b60405180910390fd5b50505050565b606060405180602001604052806000815250905090565b6060600060016119eb84611d3f565b01905060008167ffffffffffffffff811115611a30577f4e487b7100000000000000000000000000000000000000000000000000000000600052604160045260246000fd5b6040519080825280601f01601f191660200182016040528015611a625781602001600182028036833780820191505090505b509050600082602001820190505b600115611af5578080600190039150507f3031323334353637383961626364656600000000000000000000000000000000600a86061a8153600a8581611adf577f4e487b7100000000000000000000000000000000000000000000000000000000600052601260045260246000fd5b0494506000851415611af057611af5565b611a70565b819350505050919050565b60008073ffffffffffffffffffffffffffffffffffffffff16611b22836116db565b73ffffffffffffffffffffffffffffffffffffffff1614159050919050565b50505050565b50505050565b611b578383611f76565b611b646000848484611ba8565b611ba3576040517f08c379a0000000000000000000000000000000000000000000000000000000008152600401611b9a906129d2565b60405180910390fd5b505050565b6000611bc98473ffffffffffffffffffffffffffffffffffffffff16612194565b15611d32578373ffffffffffffffffffffffffffffffffffffffff1663150b7a02611bf261128b565b8786866040518563ffffffff1660e01b8152600401611c1494939291906128e9565b602060405180830381600087803b158015611c2e57600080fd5b505af1925050508015611c5f57506040513d601f19601f82011682018060405250810190611c5c9190612458565b60015b611ce2573d8060008114611c8f576040519150601f19603f3d011682016040523d82523d6000602084013e611c94565b606091505b50600081511415611cda576040517f08c379a0000000000000000000000000000000000000000000000000000000008152600401611cd1906129d2565b60405180910390fd5b805181602001fd5b63150b7a0260e01b7bffffffffffffffffffffffffffffffffffffffffffffffffffffffff1916817bffffffffffffffffffffffffffffffffffffffffffffffffffffffff191614915050611d37565b600190505b949350505050565b600080600090507a184f03e93ff9f4daa797ed6e38ed64bf6a1f0100000000000000008310611dc3577a184f03e93ff9f4daa797ed6e38ed64bf6a1f0100000000000000008381611db9577f4e487b7100000000000000000000000000000000000000000000000000000000600052601260045260246000fd5b0492506040810190505b6d04ee2d6d415b85acef81000000008310611e26576d04ee2d6d415b85acef81000000008381611e1c577f4e487b7100000000000000000000000000000000000000000000000000000000600052601260045260246000fd5b0492506020810190505b662386f26fc100008310611e7b57662386f26fc100008381611e71577f4e487b7100000000000000000000000000000000000000000000000000000000600052601260045260246000fd5b0492506010810190505b6305f5e1008310611eca576305f5e1008381611ec0577f4e487b7100000000000000000000000000000000000000000000000000000000600052601260045260246000fd5b0492506008810190505b6127108310611f15576127108381611f0b577f4e487b7100000000000000000000000000000000000000000000000000000000600052601260045260246000fd5b0492506004810190505b60648310611f5e5760648381611f54577f4e487b7100000000000000000000000000000000000000000000000000000000600052601260045260246000fd5b0492506002810190505b600a8310611f6d576001810190505b80915050919050565b600073ffffffffffffffffffffffffffffffffffffffff168273ffffffffffffffffffffffffffffffffffffffff161415611fe6576040517f08c379a0000000000000000000000000000000000000000000000000000000008152600401611fdd90612b12565b60405180910390fd5b611fef81611b00565b1561202f576040517f08c379a000000000000000000000000000000000000000000000000000000000815260040161202690612a32565b60405180910390fd5b61203d600083836001611b41565b61204681611b00565b15612086576040517f08c379a000000000000000000000000000000000000000000000000000000000815260040161207d90612a32565b60405180910390fd5b6001600360008473ffffffffffffffffffffffffffffffffffffffff1673ffffffffffffffffffffffffffffffffffffffff16815260200190815260200160002060008282540192505081905550816002600083815260200190815260200160002060006101000a81548173ffffffffffffffffffffffffffffffffffffffff021916908373ffffffffffffffffffffffffffffffffffffffff160217905550808273ffffffffffffffffffffffffffffffffffffffff16600073ffffffffffffffffffffffffffffffffffffffff167fddf252ad1be2c89b69c2b068fc378daa952ba7f163c4a11628f55a4df523b3ef60405160405180910390a4612190600083836001611b47565b5050565b6000808273ffffffffffffffffffffffffffffffffffffffff163b119050919050565b60006121ca6121c584612c32565b612c0d565b9050828152602081018484840111156121e257600080fd5b6121ed848285612e06565b509392505050565b60008135905061220481613474565b92915050565b6000813590506122198161348b565b92915050565b60008135905061222e816134a2565b92915050565b600081519050612243816134a2565b92915050565b600082601f83011261225a57600080fd5b813561226a8482602086016121b7565b91505092915050565b600081359050612282816134b9565b92915050565b60006020828403121561229a57600080fd5b60006122a8848285016121f5565b91505092915050565b600080604083850312156122c457600080fd5b60006122d2858286016121f5565b92505060206122e3858286016121f5565b9150509250929050565b60008060006060848603121561230257600080fd5b6000612310868287016121f5565b9350506020612321868287016121f5565b925050604061233286828701612273565b9150509250925092565b6000806000806080858703121561235257600080fd5b6000612360878288016121f5565b9450506020612371878288016121f5565b935050604061238287828801612273565b925050606085013567ffffffffffffffff81111561239f57600080fd5b6123ab87828801612249565b91505092959194509250565b600080604083850312156123ca57600080fd5b60006123d8858286016121f5565b92505060206123e98582860161220a565b9150509250929050565b6000806040838503121561240657600080fd5b6000612414858286016121f5565b925050602061242585828601612273565b9150509250929050565b60006020828403121561244157600080fd5b600061244f8482850161221f565b91505092915050565b60006020828403121561246a57600080fd5b600061247884828501612234565b91505092915050565b60006020828403121561249357600080fd5b60006124a184828501612273565b91505092915050565b600080604083850312156124bd57600080fd5b60006124cb85828601612273565b92505060206124dc85828601612273565b9150509250929050565b6124ef81612d92565b82525050565b6124fe81612da4565b82525050565b600061250f82612c63565b6125198185612c79565b9350612529818560208601612e15565b61253281612fb0565b840191505092915050565b600061254882612c6e565b6125528185612c95565b9350612562818560208601612e15565b61256b81612fb0565b840191505092915050565b600061258182612c6e565b61258b8185612ca6565b935061259b818560208601612e15565b80840191505092915050565b60006125b4602483612c95565b91506125bf82612fc1565b604082019050919050565b60006125d7601f83612c95565b91506125e282613010565b602082019050919050565b60006125fa602d83612c95565b915061260582613039565b604082019050919050565b600061261d603283612c95565b915061262882613088565b604082019050919050565b6000612640602683612c95565b915061264b826130d7565b604082019050919050565b6000612663602583612c95565b915061266e82613126565b604082019050919050565b6000612686601c83612c95565b915061269182613175565b602082019050919050565b60006126a9602483612c95565b91506126b48261319e565b604082019050919050565b60006126cc601983612c95565b91506126d7826131ed565b602082019050919050565b60006126ef601783612c95565b91506126fa82613216565b602082019050919050565b6000612712601283612c95565b915061271d8261323f565b602082019050919050565b6000612735601383612c95565b915061274082613268565b602082019050919050565b6000612758602983612c95565b915061276382613291565b604082019050919050565b600061277b602083612c95565b9150612786826132e0565b602082019050919050565b600061279e601983612c95565b91506127a982613309565b602082019050919050565b60006127c1602083612c95565b91506127cc82613332565b602082019050919050565b60006127e4601883612c95565b91506127ef8261335b565b602082019050919050565b6000612807602183612c95565b915061281282613384565b604082019050919050565b600061282a600083612c8a565b9150612835826133d3565b600082019050919050565b600061284d603d83612c95565b9150612858826133d6565b604082019050919050565b6000612870602183612c95565b915061287b82613425565b604082019050919050565b61288f81612dfc565b82525050565b60006128a18285612576565b91506128ad8284612576565b91508190509392505050565b60006128c48261281d565b9150819050919050565b60006020820190506128e360008301846124e6565b92915050565b60006080820190506128fe60008301876124e6565b61290b60208301866124e6565b6129186040830185612886565b818103606083015261292a8184612504565b905095945050505050565b600060208201905061294a60008301846124f5565b92915050565b6000602082019050818103600083015261296a818461253d565b905092915050565b6000602082019050818103600083015261298b816125a7565b9050919050565b600060208201905081810360008301526129ab816125ca565b9050919050565b600060208201905081810360008301526129cb816125ed565b9050919050565b600060208201905081810360008301526129eb81612610565b9050919050565b60006020820190508181036000830152612a0b81612633565b9050919050565b60006020820190508181036000830152612a2b81612656565b9050919050565b60006020820190508181036000830152612a4b81612679565b9050919050565b60006020820190508181036000830152612a6b8161269c565b9050919050565b60006020820190508181036000830152612a8b816126bf565b9050919050565b60006020820190508181036000830152612aab816126e2565b9050919050565b60006020820190508181036000830152612acb81612705565b9050919050565b60006020820190508181036000830152612aeb81612728565b9050919050565b60006020820190508181036000830152612b0b8161274b565b9050919050565b60006020820190508181036000830152612b2b8161276e565b9050919050565b60006020820190508181036000830152612b4b81612791565b9050919050565b60006020820190508181036000830152612b6b816127b4565b9050919050565b60006020820190508181036000830152612b8b816127d7565b9050919050565b60006020820190508181036000830152612bab816127fa565b9050919050565b60006020820190508181036000830152612bcb81612840565b9050919050565b60006020820190508181036000830152612beb81612863565b9050919050565b6000602082019050612c076000830184612886565b92915050565b6000612c17612c28565b9050612c238282612e7a565b919050565b6000604051905090565b600067ffffffffffffffff821115612c4d57612c4c612f81565b5b612c5682612fb0565b9050602081019050919050565b600081519050919050565b600081519050919050565b600082825260208201905092915050565b600081905092915050565b600082825260208201905092915050565b600081905092915050565b6000612cbc82612dfc565b9150612cc783612dfc565b9250827fffffffffffffffffffffffffffffffffffffffffffffffffffffffffffffffff03821115612cfc57612cfb612ef4565b5b828201905092915050565b6000612d1282612dfc565b9150612d1d83612dfc565b925082612d2d57612d2c612f23565b5b828204905092915050565b6000612d4382612dfc565b9150612d4e83612dfc565b9250817fffffffffffffffffffffffffffffffffffffffffffffffffffffffffffffffff0483118215151615612d8757612d86612ef4565b5b828202905092915050565b6000612d9d82612ddc565b9050919050565b60008115159050919050565b60007fffffffff0000000000000000000000000000000000000000000000000000000082169050919050565b600073ffffffffffffffffffffffffffffffffffffffff82169050919050565b6000819050919050565b82818337600083830152505050565b60005b83811015612e33578082015181840152602081019050612e18565b83811115612e42576000848401525b50505050565b60006002820490506001821680612e6057607f821691505b60208210811415612e7457612e73612f52565b5b50919050565b612e8382612fb0565b810181811067ffffffffffffffff82111715612ea257612ea1612f81565b5b80604052505050565b6000612eb682612dfc565b91507fffffffffffffffffffffffffffffffffffffffffffffffffffffffffffffffff821415612ee957612ee8612ef4565b5b600182019050919050565b7f4e487b7100000000000000000000000000000000000000000000000000000000600052601160045260246000fd5b7f4e487b7100000000000000000000000000000000000000000000000000000000600052601260045260246000fd5b7f4e487b7100000000000000000000000000000000000000000000000000000000600052602260045260246000fd5b7f4e487b7100000000000000000000000000000000000000000000000000000000600052604160045260246000fd5b6000601f19601f8301169050919050565b7f53616c65207072696365206d7573742062652067726561746572207468616e2060008201527f7a65726f00000000000000000000000000000000000000000000000000000000602082015250565b7f4e6f7420617070726f76656420746f2073656c6c207468697320746f6b656e00600082015250565b7f4552433732313a2063616c6c6572206973206e6f7420746f6b656e206f776e6560008201527f72206f7220617070726f76656400000000000000000000000000000000000000602082015250565b7f4552433732313a207472616e7366657220746f206e6f6e20455243373231526560008201527f63656976657220696d706c656d656e7465720000000000000000000000000000602082015250565b7f4f776e61626c653a206e6577206f776e657220697320746865207a65726f206160008201527f6464726573730000000000000000000000000000000000000000000000000000602082015250565b7f4552433732313a207472616e736665722066726f6d20696e636f72726563742060008201527f6f776e6572000000000000000000000000000000000000000000000000000000602082015250565b7f4552433732313a20746f6b656e20616c7265616479206d696e74656400000000600082015250565b7f4552433732313a207472616e7366657220746f20746865207a65726f2061646460008201527f7265737300000000000000000000000000000000000000000000000000000000602082015250565b7f4552433732313a20617070726f766520746f2063616c6c657200000000000000600082015250565b7f546f6b656e20494420646f6573206e6f74206578697374000000000000000000600082015250565b7f496e73756666696369656e742066756e64730000000000000000000000000000600082015250565b7f4e6f7420656e6f75676820424e422073656e7400000000000000000000000000600082015250565b7f4552433732313a2061646472657373207a65726f206973206e6f74206120766160008201527f6c6964206f776e65720000000000000000000000000000000000000000000000602082015250565b7f4552433732313a206d696e7420746f20746865207a65726f2061646472657373600082015250565b7f5472616e7366657220746f2073656c6c6572206661696c656400000000000000600082015250565b7f4f776e61626c653a2063616c6c6572206973206e6f7420746865206f776e6572600082015250565b7f4552433732313a20696e76616c696420746f6b656e2049440000000000000000600082015250565b7f4552433732313a20617070726f76616c20746f2063757272656e74206f776e6560008201527f7200000000000000000000000000000000000000000000000000000000000000602082015250565b50565b7f4552433732313a20617070726f76652063616c6c6572206973206e6f7420746f60008201527f6b656e206f776e6572206f7220617070726f76656420666f7220616c6c000000602082015250565b7f5472616e7366657220746f20636f6e7472616374206f776e6572206661696c6560008201527f6400000000000000000000000000000000000000000000000000000000000000602082015250565b61347d81612d92565b811461348857600080fd5b50565b61349481612da4565b811461349f57600080fd5b50565b6134ab81612db0565b81146134b657600080fd5b50565b6134c281612dfc565b81146134cd57600080fd5b5056fea2646970667358221220756fc75266ebf778f4773dbc2a6f140eed3f28790904fe347d0775ba42db1abf64736f6c63430008040033",
  "linkReferences": {},
  "deployedLinkReferences": {}
}