{
  "_format": "hh-sol-artifact-1",
  "contractName": "Lottery",
  "sourceName": "contracts/Lottery.sol",
  "abi": [
    {
      "anonymous": false,
      "inputs": [
        {
          "indexed": true,
          "internalType": "address",
          "name": "previousOwner",
          "type": "address"
        },
        {
          "indexed": true,
          "internalType": "address",
          "name": "newOwner",
          "type": "address"
        }
      ],
      "name": "OwnershipTransferred",
      "type": "event"
    },
    {
      "inputs": [],
      "name": "Gneraterandom",
      "outputs": [
        {
          "internalType": "uint256",
          "name": "",
          "type": "uint256"
        }
      ],
      "stateMutability": "view",
      "type": "function"
    },
    {
      "inputs": [],
      "name": "SelectWinner",
      "outputs": [],
      "stateMutability": "nonpayable",
      "type": "function"
    },
    {
      "inputs": [],
      "name": "TicketNo",
      "outputs": [
        {
          "internalType": "uint256",
          "name": "",
          "type": "uint256"
        }
      ],
      "stateMutability": "view",
      "type": "function"
    },
    {
      "inputs": [],
      "name": "Ticket_Purchase",
      "outputs": [],
      "stateMutability": "payable",
      "type": "function"
    },
    {
      "inputs": [],
      "name": "lottery",
      "outputs": [],
      "stateMutability": "nonpayable",
      "type": "function"
    },
    {
      "inputs": [],
      "name": "owner",
      "outputs": [
        {
          "internalType": "address",
          "name": "",
          "type": "address"
        }
      ],
      "stateMutability": "view",
      "type": "function"
    },
    {
      "inputs": [
        {
          "internalType": "uint256",
          "name": "",
          "type": "uint256"
        }
      ],
      "name": "players",
      "outputs": [
        {
          "internalType": "address",
          "name": "",
          "type": "address"
        }
      ],
      "stateMutability": "view",
      "type": "function"
    },
    {
      "inputs": [],
      "name": "renounceOwnership",
      "outputs": [],
      "stateMutability": "nonpayable",
      "type": "function"
    },
    {
      "inputs": [
        {
          "internalType": "address",
          "name": "newOwner",
          "type": "address"
        }
      ],
      "name": "transferOwnership",
      "outputs": [],
      "stateMutability": "nonpayable",
      "type": "function"
    }
  ],
  "bytecode": "0x608060405260006002556000600355600060045534801561001f57600080fd5b5061003c61003161004160201b60201c565b61004960201b60201c565b61010d565b600033905090565b60008060009054906101000a900473ffffffffffffffffffffffffffffffffffffffff169050816000806101000a81548173ffffffffffffffffffffffffffffffffffffffff021916908373ffffffffffffffffffffffffffffffffffffffff1602179055508173ffffffffffffffffffffffffffffffffffffffff168173ffffffffffffffffffffffffffffffffffffffff167f8be0079c531659141344cd1fd0a4f28419497f9722a3daafe3b4186f6b6457e060405160405180910390a35050565b610baa8061011c6000396000f3fe6080604052600436106100865760003560e01c8063ba13a57211610059578063ba13a57214610102578063bee0989014610119578063f2fde38b14610130578063f71d96cb14610159578063ff52ae8c1461019657610086565b8063715018a61461008b5780638da5cb5b146100a257806394f7c2d2146100cd578063b4c2ecc5146100f8575b600080fd5b34801561009757600080fd5b506100a06101c1565b005b3480156100ae57600080fd5b506100b76101d5565b6040516100c491906107ee565b60405180910390f35b3480156100d957600080fd5b506100e26101fe565b6040516100ef9190610889565b60405180910390f35b610100610290565b005b34801561010e57600080fd5b50610117610372565b005b34801561012557600080fd5b5061012e610374565b005b34801561013c57600080fd5b50610157600480360381019061015291906106af565b610425565b005b34801561016557600080fd5b50610180600480360381019061017b91906106d8565b6104a9565b60405161018d91906107ee565b60405180910390f35b3480156101a257600080fd5b506101ab6104dc565b6040516101b89190610889565b60405180910390f35b6101c96104e2565b6101d36000610560565b565b60008060009054906101000a900473ffffffffffffffffffffffffffffffffffffffff16905090565b6000806003549050600081141561024a576040517f08c379a000000000000000000000000000000000000000000000000000000000815260040161024190610869565b60405180910390fd5b6000444260405160200161025f9291906107c2565b6040516020818303038152906040528051906020012060001c9050818161028691906109ed565b9050809250505090565b606434116102d3576040517f08c379a00000000000000000000000000000000000000000000000000000000081526004016102ca90610829565b60405180910390fd5b600260008154809291906102e690610951565b9190505550600360008154809291906102fe9061099a565b91905055503360016000600354815260200190815260200160002060006101000a81548173ffffffffffffffffffffffffffffffffffffffff021916908373ffffffffffffffffffffffffffffffffffffffff160217905550346004600082825461036991906108b5565b92505081905550565b565b61037c6104e2565b60006103866101fe565b90506001600082815260200190815260200160002060009054906101000a900473ffffffffffffffffffffffffffffffffffffffff1673ffffffffffffffffffffffffffffffffffffffff166108fc479081150290604051600060405180830381858888f19350505050158015610401573d6000803e3d6000fd5b5061040a610624565b60006004819055506000600381905550600060028190555050565b61042d6104e2565b600073ffffffffffffffffffffffffffffffffffffffff168173ffffffffffffffffffffffffffffffffffffffff16141561049d576040517f08c379a000000000000000000000000000000000000000000000000000000000815260040161049490610809565b60405180910390fd5b6104a681610560565b50565b60016020528060005260406000206000915054906101000a900473ffffffffffffffffffffffffffffffffffffffff1681565b60035481565b6104ea61067d565b73ffffffffffffffffffffffffffffffffffffffff166105086101d5565b73ffffffffffffffffffffffffffffffffffffffff161461055e576040517f08c379a000000000000000000000000000000000000000000000000000000000815260040161055590610849565b60405180910390fd5b565b60008060009054906101000a900473ffffffffffffffffffffffffffffffffffffffff169050816000806101000a81548173ffffffffffffffffffffffffffffffffffffffff021916908373ffffffffffffffffffffffffffffffffffffffff1602179055508173ffffffffffffffffffffffffffffffffffffffff168173ffffffffffffffffffffffffffffffffffffffff167f8be0079c531659141344cd1fd0a4f28419497f9722a3daafe3b4186f6b6457e060405160405180910390a35050565b60005b60035481101561067a576001600082815260200190815260200160002060006101000a81549073ffffffffffffffffffffffffffffffffffffffff021916905580806106729061099a565b915050610627565b50565b600033905090565b60008135905061069481610b46565b92915050565b6000813590506106a981610b5d565b92915050565b6000602082840312156106c157600080fd5b60006106cf84828501610685565b91505092915050565b6000602082840312156106ea57600080fd5b60006106f88482850161069a565b91505092915050565b61070a8161090b565b82525050565b600061071d6026836108a4565b915061072882610a7c565b604082019050919050565b6000610740601c836108a4565b915061074b82610acb565b602082019050919050565b60006107636020836108a4565b915061076e82610af4565b602082019050919050565b6000610786601a836108a4565b915061079182610b1d565b602082019050919050565b6107a581610947565b82525050565b6107bc6107b782610947565b6109e3565b82525050565b60006107ce82856107ab565b6020820191506107de82846107ab565b6020820191508190509392505050565b60006020820190506108036000830184610701565b92915050565b6000602082019050818103600083015261082281610710565b9050919050565b6000602082019050818103600083015261084281610733565b9050919050565b6000602082019050818103600083015261086281610756565b9050919050565b6000602082019050818103600083015261088281610779565b9050919050565b600060208201905061089e600083018461079c565b92915050565b600082825260208201905092915050565b60006108c082610947565b91506108cb83610947565b9250827fffffffffffffffffffffffffffffffffffffffffffffffffffffffffffffffff03821115610900576108ff610a1e565b5b828201905092915050565b600061091682610927565b9050919050565b6000819050919050565b600073ffffffffffffffffffffffffffffffffffffffff82169050919050565b6000819050919050565b600061095c8261091d565b91507f7fffffffffffffffffffffffffffffffffffffffffffffffffffffffffffffff82141561098f5761098e610a1e565b5b600182019050919050565b60006109a582610947565b91507fffffffffffffffffffffffffffffffffffffffffffffffffffffffffffffffff8214156109d8576109d7610a1e565b5b600182019050919050565b6000819050919050565b60006109f882610947565b9150610a0383610947565b925082610a1357610a12610a4d565b5b828206905092915050565b7f4e487b7100000000000000000000000000000000000000000000000000000000600052601160045260246000fd5b7f4e487b7100000000000000000000000000000000000000000000000000000000600052601260045260246000fd5b7f4f776e61626c653a206e6577206f776e657220697320746865207a65726f206160008201527f6464726573730000000000000000000000000000000000000000000000000000602082015250565b7f416d6f756e74206973206c657373207468656e20302e30303145544800000000600082015250565b7f4f776e61626c653a2063616c6c6572206973206e6f7420746865206f776e6572600082015250565b7f4c6f7474657279206469646e6f74207374617274656420796574000000000000600082015250565b610b4f8161090b565b8114610b5a57600080fd5b50565b610b6681610947565b8114610b7157600080fd5b5056fea2646970667358221220a505b4c555e647f4c9fa636216a4ab59691336d1c81dd97e366e6708d3980be264736f6c63430008040033",
  "linkReferences": {},
  "deployedLinkReferences": {}
}